:100000000C9434000C9451000C9451000C94510049
:100010000C9451000C9451000C9451000C9451001C
:100020000C9451000C9451000C9451000C9451000C
:100030000C9451000C9451000C9451000C945100FC
:100040000C9451000C9451000C94D4070C940608A5
:100050000C9451000C9451000C9451000C945100DC
:100060000C9451000C94510011241FBECFEFD8E026
:10007000DEBFCDBF12E0A0E0B1E0E0E7FBE102C0EF
:1000800005900D92A636B107D9F712E0A6E6B2E0C8
:1000900001C01D92AE3DB107E1F70E94B3080C9478
:1000A000B60D0C94000080917A00806480937A00F1
:1000B00080917A0086FDFCCF809178009091790044
:1000C00090936702809366020E949F05ECCF84E0C4
:1000D000E82E90E3D92E0AE211E02AE0F22EC1EBDD
:1000E000D2E01092BB0281E00E94F300E092BB02DA
:1000F00080E80E94F30080E090E0FC01EF54FD4FA7
:10010000D08201968A309105C4F39093690280935E
:10011000680280916602909167029F938F931F936C
:100120000F931F92FF92DF93CF930E94D00A81EB2F
:1001300092E00E9422039FEF29E688E1915020403F
:100140008040E1F700C000000E949F058DB79EB778
:1001500008960FB6F8949EBF0FBE8DBFC2CF3898D9
:1001600080917C008F7780937C0080917C008F7BD6
:1001700080937C0080917A00846080937A008091E3
:100180007A00826080937A0080917A008160809307
:100190007A0080917A00806880937A0080917C0058
:1001A000877F80937C0080917C008B7F80937C0094
:1001B00080917C008D7F80937C0080917C008E7F7D
:1001C00080937C0080917E00816080937E0080918E
:1001D0007A00806480937A0080917A0086FDFCCF5B
:1001E00008950C941A012BB1982F907F2F70922BA9
:1001F0009BB9382F3295307F22E05A9895E09A9536
:10020000F1F700005B9AE5E0EA95F1F700005B98F2
:10021000F0EFFA95F1F7843034F4EFE3FFE1319732
:10022000F1F700C000009BB19F70932B9BB9215048
:1002300021F708950F931F93CF93DF938BB18F70A6
:100240008BB98AB1806F8AB98BB1837F8BB98AB140
:100250008C608AB98BB18F7080638BB985E08A9589
:10026000F1F700005B9A95E09A95F1F700005B9832
:10027000E0EFEA95F1F78FE19EE40197F1F700C016
:10028000000095E09A95F1F700005B9AE5E0EA95A9
:10029000F1F700005B98F0EFFA95F1F78FE193E04A
:1002A0000197F1F700C0000095E09A95F1F7000082
:1002B0005B9AE5E0EA95F1F700005B98F0EFFA95BC
:1002C000F1F78BB18F7080628BB985E08A95F1F779
:1002D00000005B9A95E09A95F1F700005B98E0EFDB
:1002E000EA95F1F788E20E94F30088E00E94F300AB
:1002F0000BEB12E0F801108281E00E94F300ECEBBE
:10030000F2E080818160808381FBFF27F0F9CF2FAD
:1003100090E0D92FCC0FDD1FCC6082FB882780F9BD
:100320008C2B0E94F30084E0F801808380E8DF9149
:10033000CF911F910F910C94F3008A30B9F4809102
:10034000BB02982F93708C7F911105C081608093C0
:10035000BB0280EC03C08093BB0280E80E94F300E4
:100360008091BB0283708093BB0208952BB1982FBC
:10037000907F2F70922B9BB98295807F22E05A9AB2
:1003800095E09A95F1F700005B9A95E09A95F1F760
:1003900000005B9890EF9A95F1F79BB19F70982BB6
:1003A0009BB9215061F708951F93CF93DF939091EC
:1003B000BB028A3029F5192F16951695C0E0D0E0BA
:1003C00004C080E20E949D0121968C2F810F803114
:1003D000C0F38091BB02982F93708C7F911105C060
:1003E00081608093BB0280EC03C08093BB0280E8F5
:1003F0000E94F3008091BB0283708093BB0224C0F3
:10040000292F2C7F2C5F9370922B9093BB022BB1E2
:10041000982F907F2F70922B9BB98295807F22E03E
:100420005A9A95E09A95F1F700005B9A95E09A95B3
:10043000F1F700005B9890EF9A95F1F79BB19F70F0
:10044000982B9BB9215061F780E090E0DF91CF912C
:100450001F910895F999FECF70E072BD61BD80BD16
:10046000FA9AF99A0895F999FECF92BD81BDF89A4A
:1004700080B50895239A259A24982C9A9CB5906566
:100480008370982B9CBD08958EBD0DB407FEFDCFE3
:100490008EB50895EF92FF921F93CF93DF931F9233
:1004A000CDB7DEB7182FE82EF92E07C0F7018191DE
:1004B0007F0169830E94440269818E2D811B86170A
:1004C000A8F30F90DF91CF911F91FF90EF900895C7
:1004D000EF92FF921F93CF93DF931F92CDB7DEB7BA
:1004E000182FE82EF92E08C080E069830E9444028C
:1004F000F70181937F0169818E2D811B8617A0F3FF
:1005000080E00F90DF91CF911F91FF90EF900895C1
:1005100023982598249A80E48CBD08950DB407FE95
:10052000FDCF8EB50895ECE7F0E060812081B081C9
:10053000EAE7F0E07081A08150819081EBE7F0E084
:10054000408180917E0030812F70220F220F6295B2
:10055000669566956370622BB295B695B770B0FBE1
:1005600066F9771F7727771F70FB67F9A295A69525
:10057000A77070E0A0FB70F956955695569550FB04
:1005800071F99770990F990F73704295440F407EDF
:10059000792B742B8F73329536953695337030FBEB
:1005A00086F90895A62FA37090E4A99FD001112485
:1005B00066FBEE27E0F9F0E095E0EE0FFF1F9A955D
:1005C000E1F7EA2B962F969596959F70E92BE0938D
:1005D0007C006078472F417050E025E0440F551FA4
:1005E0002A95E1F7642B972F969596959770692B2E
:1005F00071FB222720F930E043E0220F331F4A9598
:10060000E1F7622B60937A00982F9074729576953B
:100610007770972B90937B008F7380937E00089563
:10062000EAE7F0E08081806480830895ECE7F0E001
:100630009081907F982B9083089580917A0086FD19
:10064000FCCF0895EF92FF921F93CF93DF931F92F9
:10065000CDB7DEB7182F5BEBE52E52E0F52EF70194
:10066000108281E099830E94F30084E0F701808387
:1006700080E80E94F30099819F931F930E948A0A49
:10068000FFE728E381E0F15020408040E1F700C01F
:1006900000000F900F900F90DF91CF911F91FF906E
:1006A000EF90089590936B0280936A020F920FB6B9
:1006B000F8940F921F9211242F923F924F925F92C3
:1006C0006F927F928F929F92AF92BF92CF92DF9262
:1006D000EF92FF920F931F932F933F934F935F934C
:1006E0006F937F938F939F93AF93BF93CF93DF933A
:1006F000EF93FF93A0916A02B0916B020DB60D9239
:100700000EB60D926115710509F42FC070936B023E
:1007100060936A02A0916A02B0916B02CD91CDBF45
:10072000DD91DEBFFF91EF91DF91CF91BF91AF914E
:100730009F918F917F916F915F914F913F912F91F9
:100740001F910F91FF90EF90DF90CF90BF90AF90EF
:100750009F908F907F906F905F904F903F902F90E1
:100760001F900F900FBE0F9004C081E391E00E9494
:10077000A10A0895DC0114962C911497222371F09C
:10078000ED91FC9108C0828190E08617970741F0B7
:100790000384F485E02D3097B1F702C0E0E0F0E08B
:1007A000CF010895CF93DF93DC0114962C91149719
:1007B000222359F112969C91129713968C911397BC
:1007C000E92FF82F213071F41686158614861386CA
:1007D00011961C921E9213961C921E9212971496BA
:1007E0001C9215C0C585D6851396DC93CE931297BF
:1007F0001C861B86168615861486138614968C9185
:100800001497815014968C9302C0E0E0F0E0CF0181
:10081000DF91CF910895CF93DF93FC0184818823EA
:1008200021F1A081B181813071F41E961C921E923B
:100830001D971C961C921E921B9711821082138288
:100840001282148214C01B96CD91DC911C97D18327
:10085000C083AD85BE851E861D861C961C921E9289
:100860001B9784818150848302C0A0E0B0E0CD0159
:10087000DF91CF910895CF93DF93DC0114962C91F3
:100880001497222371F1ED91FC9108C0228130E090
:100890002617370749F10384F485E02D3097B1F727
:1008A00029C0DF91CF910C940B04A385B4851097D8
:1008B00021F4DF91CF910C94D2031E963C932E939A
:1008C0001D97C585D685BC87AB8716861586148689
:1008D0001386DC0114962C911497215014962C93B6
:1008E00009C0E0E0F0E006C0258536852115310518
:1008F000E1F6D7CFCF01DF91CF910895CF93DF936A
:10090000FC018481811106C07183608373836283DB
:1009100081E012C0DB011E961C921E921D97A081E1
:10092000B181EB01BC87AB871E967C936E931D97BC
:100930007183608384818F5F8483DF91CF91089579
:10094000CF93DF93FC018481811106C071836083A2
:100950007383628381E012C0DB011C961C921E929D
:100960001B97A281B381EB01BE87AD871C967C9358
:100970006E931B977383628384818F5F8483DF917F
:10098000CF910895CF93DF93FC018481811106C03C
:10099000718360837383628381E02BC0DB011596D2
:1009A0008C91853029F4CF01DF91CF910C94A00474
:1009B000A281B38109C015969C911597891700F5FE
:1009C0001D960D90BC91A02D1097A9F714C0EB01B6
:1009D0009C878B871B96CD91DC911C977E876D87BA
:1009E0001C967C936E931B97EB01BE87AD87848129
:1009F0008F5F84830CC0CF01DF91CF910C947E0474
:100A00001B968D919C911C97009709F7CCCFDF9195
:100A1000CF910895AF92BF92DF92EF92FF920F9322
:100A20001F93CF93DF9300D01F92CDB7DEB7D82EA0
:100A3000E92E8A01F090C60286E08F1508F46FC097
:100A40008FE090E02A833B8369830E9453095C0115
:100A5000DC011296FC9212978F2D8F5F8093C60255
:100A6000EF2DF0E0EE0FFF1FE953FD4FB182A082A2
:100A700081E013968C93139717961C921E921697EB
:100A800019961C921E9218971A961C921A971E96E7
:100A90001C921E921D971C961C921E921B97698198
:100AA00015966C93E091BF02F091C002AF01401B1C
:100AB000510B5093C0024093BF02D082DF011197C7
:100AC000EC92DF0112971C92DF01139780E88C9360
:100AD000DF0114971C92AD01CF014A973B812A8117
:100AE000DA011E92AD01A817B907D1F7DF015B97B4
:100AF0002C93DF015C973C93CF0182971E92A8173D
:100B0000B907E1F7B397D501ED93FC93B50181ECFB
:100B100092E00E94C204F501228130E002C02FEF72
:100B20003FEFC9010F900F900F90DF91CF911F9170
:100B30000F91FF90EF90DF90BF90AF900895CF930B
:100B4000DF938091C502882321F1C091BD02D0912D
:100B5000BE02E091C102F091C2029D818581981789
:100B6000C0F081E08B8381EC92E00E940B049093B3
:100B7000BE028093BD02FC011382BE0181EC92E0B3
:100B80000E94C2046091BD027091BE02CE010E941B
:100B90005203DF91CF9108952FEF84E39CE0215021
:100BA00080409040E1F700C000000E949F05F4CF14
:100BB000E091BD02F091BE02828190E00895CF9253
:100BC000DF92EF92FF920F931F93CF93DF936C010D
:100BD0007B01EC01CC0FDD1FC953DD4FE881F981AA
:100BE0003097A1F18381833011F18091C502882370
:100BF000F1F00091BD021091BE0282E0F801838302
:100C000081EC92E00E940B049093BE028093BD029F
:100C1000FC01138288819981B80106960E94A00484
:100C20006091BD027091BE02C8010E945203F6019C
:100C3000EE0FFF1FE953FD4F0190F081E02D8481FD
:100C4000F7018083118220E030E002C02FEF3FEFF8
:100C5000C901DF91CF911F910F91FF90EF90DF902D
:100C6000CF900895FF920F931F93CF93DF93C0917E
:100C7000BD02D091BE028C8383E08B838E010A5F1C
:100C80001F4FFF24F3940AC0C8010E940B04BC014B
:100C9000FC01F38281EC92E00E94C2048A858111FA
:100CA000F3CF8091C502882371F081EC92E00E941D
:100CB0000B049093BE028093BD02FC011382BC0121
:100CC000CE010E945203DF91CF911F910F91FF90AF
:100CD00008958430910540F4FC01EE0FFF1FEA5E99
:100CE000FE4F2081318102C02AE531E0C90108951B
:100CF0008630910540F4FC01EE0FFF1FE25EFE4FCF
:100D00002081318102C02AE531E0C90108950F93A5
:100D10001F93CF93DF93FC01C081D18100E611E0E6
:100D200032C0EB81F0E0E430F10538F4EE0FFF1F44
:100D3000EA5EFE4F2081318102C02AE531E0ED817B
:100D4000F0E0E630F10538F4EE0FFF1FE25EFE4FF3
:100D50008081918102C08AE591E03F932F939F9318
:100D60008F938A811F928F931F930F930E948A0AF9
:100D70000B84DC85C02D8DB79EB708960FB6F8940E
:100D80009EBF0FBE8DBF209761F6DF91CF911F915F
:100D90000F910895CF93DF938091C502882321F1AD
:100DA000C091BD02D091BE02E091C102F091C20299
:100DB0009D8185819817C0F081E08B8381EC92E062
:100DC0000E940B049093BE028093BD02FC0113822B
:100DD000BE0181EC92E00E94C2046091BD0270915C
:100DE000BE02CE010E945203DF91CF910895E0919F
:100DF000C102F091C20285811F928F9386E891E033
:100E00009F938F930E948A0A0F900F900F900F90DC
:100E10000895CF92DF92FF920F931F93CF93DF93AA
:100E200000D01F92CDB7DEB7F82E092F1091C60261
:100E3000173008F05FC08FE090E02A833B8369831E
:100E40000E9453096C01DC0112961C931297812FAA
:100E50008F5F8093C602E12FF0E0EE0FFF1FE95392
:100E6000FD4FD182C08281E013968C931397179621
:100E70001C921E92169719961C921E9218971A96FB
:100E80001C921A971E961C921E921D971C961C92DD
:100E90001E921B97698115966C93F0920000009347
:100EA000FFFF1092FEFF80E88093FDFF1092FCFF91
:100EB000ECEFFFEF3B812A811292E63EBFEFFB078A
:100EC000D9F72093E5FF3093E4FFE4EEFFEF1292B1
:100ED000EE3D8FEFF807D9F78DED9FEFD6018D939B
:100EE0009C93B60181EC92E00E94C204F60122813B
:100EF00030E002C02FEF3FEFC9010F900F900F902D
:100F0000DF91CF911F910F91FF90DF90CF900895C7
:100F1000CF93DF9300D0CDB7DEB78091C602873084
:100F2000D8F51092C2021092C1021092C40210921F
:100F3000C3021092C5028FE090E00E945309FC01A9
:100F40009093BE028093BD02128281E08093C6021C
:100F5000F093C802E093C7021782168211861086AA
:100F60001286138216861586148613868FE798E0FC
:100F70009093C0028093BF021A8219829E012F5F54
:100F80003F4F40E850E065E070E08CEC95E00E9457
:100F9000090720E030E002C02FEF3FEFC9010F90BA
:100FA0000F90DF91CF9108951F920F920FB60F927D
:100FB00011242F938F939F93EF93FF938091C00001
:100FC0009091C6001092D302913619F421E020933B
:100FD000D3028871E0916E02EF5FEF7120916D0294
:100FE000E21739F0E0936E02F0E0EF58FD4F908386
:100FF00001C082E080936C02FF91EF919F918F91ED
:101000002F910F900FBE0F901F9018951F920F9267
:101010000FB60F9211248F939F93EF93FF939091AC
:10102000700280916F02981769F0E0916F02EF5F94
:10103000EF71E0936F02F0E0EF56FD4F80818093F7
:10104000C60005C08091C1008F7D8093C100FF91D3
:10105000EF919F918F910F900FBE0F901F90189559
:101060001092700210926F0210926E0210926D0236
:1010700097FF04C022E02093C0009F779093C500A3
:101080008093C40088E98093C10086E08093C20009
:10109000089590916E0280916D02981789F0E09109
:1010A0006D02EF5FEF71E0936D02F0E0EF58FD4FDE
:1010B000808190916C02392F20E0280F311D02C0F1
:1010C00020E031E0C9010895909170029F5F9F7107
:1010D00020916F029217E1F3E92FF0E0EF56FD4FF8
:1010E0008083909370028091C10080628093C100E0
:1010F0000895CF93DF93EC0102C00E9464088991A8
:101100008111FBCFDF91CF910895CF93DF93EC0155
:1011100002C00E946408FE01219684918111F9CFDA
:10112000DF91CF910895CF93C82F8A3019F48DE0C5
:101130000E9464088C2F0E94640880E090E0CF91A8
:10114000089580916E0220916D0290E04F96821B6F
:1011500091096FE170E00E942B09089580916D0262
:1011600080936E020895CF93DF93CDB7DEB72897B3
:101170000FB6F894DEBF0FBECDBF0E941A0182E009
:1011800091E09093DD028093DC029093DB028093E8
:10119000DA029093D9028093D8021092BB0281E0C8
:1011A0000E94F30034E0D32ED092BB0280E80E946C
:1011B000F3002FEF89E698E1215080409040E1F75D
:1011C00000C000008DE291E00E94A10A2FEF89E6A5
:1011D00098E1215080409040E1F700C000000E945B
:1011E000AF0015B80E94880787E090E09C838B834E
:1011F0009A8389839E012D5F3F4F40E850E063E072
:1012000070E083E590E00E940A058C019E012F5F4B
:101210003F4F40E850E063E070E087E690E00E94D6
:101220000A057C011092BB0281E00E94F300D0927B
:10123000BB0280E80E94F300BE01695F7F4FC801D6
:101240000E94DF05BE016B5F7F4FC7010E94DF0573
:1012500081E185B9FECF97FB072E16F4009407D0E5
:1012600077FD09D00E943F0907FC05D03EF4909518
:1012700081959F4F0895709561957F4F0895AA1BA2
:10128000BB1B51E107C0AA1FBB1FA617B70710F071
:10129000A61BB70B881F991F5A95A9F780959095A3
:1012A000BC01CD0108950F931F93CF93DF9382303C
:1012B000910510F482E090E0E091D602F091D7021F
:1012C00020E030E0C0E0D0E023C0408151814817E9
:1012D0005907A8F04817590761F482819381209734
:1012E00019F09B838A832EC09093D7028093D602F5
:1012F00029C02115310529F04217530710F0A90123
:1013000002C0BE01DF0102811381EF019A01F801E1
:101310003097D9F62115310509F1281B390B2430F6
:10132000310590F412968D919C911397611571057A
:1013300021F0FB019383828304C09093D7028093B2
:10134000D602FD01329644C0FD01E20FF31F8193E6
:101350009193225031092D933C933AC02091D402AD
:101360003091D502232B41F42091120130911301C9
:101370003093D5022093D4022091100130911101B5
:101380002115310541F42DB73EB74091140150911C
:101390001501241B350BE091D402F091D502E21720
:1013A000F307A0F42E1B3F0B2817390778F0AC0188
:1013B0004E5F5F4F2417350748F04E0F5F1F509365
:1013C000D5024093D4028193919302C0E0E0F0E013
:1013D000CF01DF91CF911F910F910895EF92FF926E
:1013E0000F931F93CF93DF93009709F48EC0DC0116
:1013F000129713961C921E921297E090D602F090CC
:10140000D702E114F10489F42D913C911197280F32
:10141000391F8091D4029091D5028217930789F5E4
:10142000B093D502A093D40270C0E70120E030E071
:1014300001C0EA01CA17DB0738F44A815B819E01CB
:1014400041155105B1F722C0AC0142505109FA01D2
:10145000D383C28300811181BC01600F711F6C179F
:101460007D0761F468817981600F711F6E5F7F4F26
:10147000718360836A817B81738362832115310567
:1014800029F4B093D702A093D6023FC0F901B383E9
:10149000A283E90149915991C40FD51FAC17BD072B
:1014A00071F4DC019E918E91840F951F02969183B9
:1014B000808312968D919C91139793838283A0E0F1
:1014C000B0E002C0D7017C01F701828193810097CF
:1014D000C9F7C701029620813181820F931F2091A5
:1014E000D4023091D5022817390779F4109729F4DE
:1014F0001092D7021092D60204C013961C921E922C
:101500001297F092D502E092D402CDB7DEB7E6E0B2
:101510000C94A70DA2E0B0E0E0E9FAE00C948F0D86
:10152000FE01379661917191FA83E983AF01809151
:10153000DA029091DB020E94020B2296E2E00C9408
:10154000AB0D0F931F93CF93DF938C01E091DA02E1
:10155000F091DB02838181FF1BC0C0E0D0E005C0B9
:101560000995892B11F0CFEFDFEFF80181918F0101
:101570006091DA027091DB02DB011896ED91FC912B
:1015800019978111EDCF8AE00995892B09F402C0E2
:10159000CFEFDFEFCE01DF91CF911F910F91089533
:1015A000A0E1B0E0E6EDFAE00C948D0D0F89188D06
:1015B000898D9A8D26E02C831A83098397FF02C0B8
:1015C00080E090E801979E838D83AE01435E5F4F7C
:1015D000588B4F876B8D7C8DCE0101960E94020B3C
:1015E0004D815E8157FD0AC02F8138854217530710
:1015F0000CF49A01F801E20FF31F10826096E4E008
:101600000C94A90DACE0B0E0E8E0FBE00C947F0D99
:101610007C016B018A01FC0117821682838181FFA4
:10162000C7C188248394912C8C0E9D1EF701938151
:10163000F60193FD859193FF81916F01882309F451
:10164000B3C1853239F493FD859193FF81916F0188
:10165000853229F4B70190E00E94F50CE7CF712C98
:10166000312C20E02032A8F48B3261F028F4803253
:1016700051F0833271F40BC08D3239F0803349F46C
:10168000216028C02260246025C0286023C020611A
:1016900021C027FD27C0382F30533A3078F426FF79
:1016A00006C0FAE07F9E300D1124732E13C08AE02D
:1016B000389E300D1124332E20620CC08E3221F45E
:1016C00026FD72C1206406C08C3611F4206802C069
:1016D000883641F4F60193FD859193FF81916F0166
:1016E0008111C0CF982F9554933018F090529330B9
:1016F00028F40C5F1F4FFFE3F9830DC0833631F0F0
:10170000833771F0833509F05EC023C0F801808112
:1017100089830E5F1F4F66246394712C540115C09A
:101720002801F2E04F0E511CF801A080B18026FF85
:1017300003C0672D70E002C06FEF7FEFC5012C87FB
:101740000E94EA0C3C0182012C856FE7262E2222A2
:1017500018C02801F2E04F0E511CF801A080B180A2
:1017600026FF03C0672D70E002C06FEF7FEFC50159
:101770002C870E94DF0C3C012C8550E8252E222A64
:10178000820123FC1CC006C0B70180E290E00E94E9
:10179000F50C3A94832D90E068167906A8F30FC0F3
:1017A000F50127FC859127FE81915F01B70190E04B
:1017B0000E94F50C31103A94F1E06F1A710861142F
:1017C000710471F7EEC0843611F0893641F5F801E5
:1017D00027FF07C060817181828193810C5F1F4F59
:1017E00008C060817181882777FD8095982F0E5FF2
:1017F0001F4F4FE6642E622297FF09C09095809597
:10180000709561957F4F8F4F9F4FF0E86F2A2AE0C8
:1018100030E0A4010E94210DA82EA81844C08537ED
:1018200031F43FEEB32EB2222AE030E024C099EF2B
:10183000B92EB2228F36B9F020F4883509F0B4C041
:101840000DC0803721F0883709F0AEC002C020E11A
:10185000B22AB4FE0BC084E0B82A08C024FF09C035
:10186000E6E0BE2A06C028E030E005C020E130E016
:1018700002C020E132E0F801B7FE07C0608171814B
:10188000828193810C5F1F4F06C06081718180E06F
:1018900090E00E5F1F4FA4010E94210DA82EA818F2
:1018A0008FE7682E6B2066FE0BC0362D3E7FA71497
:1018B00050F464FE0AC062FC08C0362D3E7E05C0AE
:1018C000BA2C362D03C0BA2C01C0B72C34FF0DC082
:1018D000FE01EA0DF11D8081803311F4397E09C0CB
:1018E00032FF06C0B394B39404C0832F867809F006
:1018F000B39433FD14C030FF0FC07A2CB31460F4DE
:10190000730C7B18B32C08C0B70180E290E03C87D1
:101910000E94F50CB3943C85B314B0F304C0B31427
:1019200010F43B1801C0312C34FF12C0B70180E322
:1019300090E03C870E94F50C3C8532FF1EC031FFD1
:1019400003C088E590E002C088E790E0B7010CC0D2
:10195000832F867891F031FD02C080E201C08BE2D6
:1019600037FD8DE2B70190E00E94F50C06C0B7018B
:1019700080E390E00E94F50C7A94A714C0F3AA9437
:10198000F401EA0DF11DB701808190E00E94F50C91
:10199000A110F5CF06C0B70180E290E00E94F50CDF
:1019A0003A943110F8CF42CEF7012681378102C038
:1019B0002FEF3FEFC9012C96E2E10C949B0DFC0147
:1019C0000590615070400110D8F7809590958E0F6A
:1019D0009F1F0895FC016150704001900110D8F7DD
:1019E000809590958E0F9F1F08950F931F93CF930F
:1019F000DF938C01EB018B8181FD03C00FEF1FEFA3
:101A00001AC082FF0DC02E813F818C819D812817D5
:101A1000390764F4E881F9810193F983E88306C00A
:101A2000E885F985802F0995892B41F78E819F8163
:101A300001969F838E83C801DF91CF911F910F91F3
:101A40000895FA01AA27283051F1203181F1E89454
:101A50006F936E7F6E5F7F4F8F4F9F4FAF4FB1E0A1
:101A60003ED0B4E03CD0670F781F891F9A1FA11D9C
:101A7000680F791F8A1F911DA11D6A0F711D811D9D
:101A8000911DA11D20D009F468943F912AE0269F62
:101A900011243019305D3193DEF6CF010895462FC1
:101AA0004770405D4193B3E00FD0C9F7F6CF462FA2
:101AB0004F70405D4A3318F0495D31FD405241930B
:101AC00002D0A9F7EACFB4E0A695979587957795C8
:101AD0006795BA95C9F700976105710508959B014F
:101AE000AC010A2E06945795479537952795BA95D8
:101AF000C9F7620F731F841F951FA01D08952F92B1
:101B00003F924F925F926F927F928F929F92AF928D
:101B1000BF92CF92DF92EF92FF920F931F93CF93DA
:101B2000DF93CDB7DEB7CA1BDB0B0FB6F894DEBF71
:101B30000FBECDBF09942A88398848885F846E8497
:101B40007D848C849B84AA84B984C884DF80EE80E1
:101B5000FD800C811B81AA81B981CE0FD11D0FB6EA
:101B6000F894DEBF0FBECDBFED010895F894FFCF0E
:101B70000F000000000200000000D401000000007F
:101B80000000DE022000A701AF01B501BD01C701C1
:101B9000E501FD011A0231024E022564004C434466
:101BA00000547279696E6720746F206C6F616420D5
:101BB00061206E6F6E206578697374696E6720634B
:101BC0006F6E74657874203F20004552524F52006A
:101BD0007468726561642049443A20256409707212
:101BE000696F726974793A20257309737461746539
:101BF0003A2025730A007072696F726964616465C6
:101C000020646F2068656164206461206C6973746E
:101C1000613A2025640A0052554E4E494E47005203
:101C2000454144590057414954494E470046494EA1
:101C3000495348494E47005448524541445F505229
:101C4000494F524954595F54494D455F4352495495
:101C50004943414C005448524541445F5052494F1A
:101C6000524954595F4849474845535400544852D3
:101C70004541445F5052494F524954595F41424F88
:101C800056455F4E4F524D414C00544852454144D9
:101C90005F5052494F524954595F4E4F524D414C3B
:101CA000005448524541445F5052494F524954599B
:101CB0005F42454C4F575F4E4F524D414C00544888
:101CC000524541445F5052494F524954595F4C4F1D
:061CD000574553540000CB
:00000001FF
