:100000000C9434000C9451000C9451000C94510049
:100010000C9451000C9451000C9451000C9451001C
:100020000C9451000C9451000C9451000C9451000C
:100030000C9451000C9451000C9451000C945100FC
:100040000C9451000C9451000C9406050C94380546
:100050000C9451000C9451000C9451000C945100DC
:100060000C9451000C94510011241FBECFEFD8E026
:10007000DEBFCDBF12E0A0E0B1E0E4EFF4E102C0EA
:1000800005900D92A035B107D9F712E0A0E5B2E0D6
:1000900001C01D92A83BB107E1F70E94E5050C9451
:1000A000780A0C9400001F93CF93DF93EC0110E1CA
:1000B000888199818F77992785B92FEF89E698E113
:1000C000215080409040E1F700C0000085B18127B9
:1000D00085B92FEF89E698E1215080409040E1F703
:1000E00000C00000288139812150310939832883DB
:1000F000232B19F00E94D102DBCF80E090E0DF914A
:10010000CF911F910C9464039093510280935002FD
:100110000F920FB6F8940F921F9211242F923F92D4
:100120004F925F926F927F928F929F92AF92BF9207
:10013000CF92DF92EF92FF920F931F932F933F93F3
:100140004F935F936F937F938F939F93AF93BF93DF
:10015000CF93DF93EF93FF93A0915002B0915102A0
:100160000DB60D920EB60D926115710509F42FC0F2
:100170007093510260935002A0915002B0915102CD
:10018000CD91CDBFDD91DEBFFF91EF91DF91CF919A
:10019000BF91AF919F918F917F916F915F914F919F
:1001A0003F912F911F910F91FF90EF90DF90CF9093
:1001B000BF90AF909F908F907F906F905F904F9087
:1001C0003F902F901F900F900FBE0F9004C08CE1B6
:1001D00091E00E9495070895DC0114962C911497E4
:1001E000222371F0ED91FC9108C0828190E0861786
:1001F000970741F00384F485E02D3097B1F702C0F2
:10020000E0E0F0E0CF010895CF93DF93DC01149696
:100210002C911497222359F112969C9112971396C0
:100220008C911397E92FF82F213071F416861586DB
:100230001486138611961C921E9213961C921E927F
:10024000129714961C9215C0C585D6851396DC931B
:10025000CE9312971C861B861686158614861386E7
:1002600014968C911497815014968C9302C0E0E000
:10027000F0E0CF01DF91CF910895CF93DF93FC01A0
:100280008481882321F1A081B181813071F41E968F
:100290001C921E921D971C961C921E921B971182F7
:1002A000108213821282148214C01B96CD91DC91AD
:1002B0001C97D183C083AD85BE851E861D861C9686
:1002C0001C921E921B9784818150848302C0A0E0FF
:1002D000B0E0CD01DF91CF910895CF93DF93DC01A2
:1002E00014962C911497222371F1ED91FC9108C082
:1002F000228130E02617370749F10384F485E02D89
:100300003097B1F729C0DF91CF910C943D01A385BF
:10031000B485109721F4DF91CF910C9404011E96BF
:100320003C932E931D97C585D685BC87AB871686D3
:10033000158614861386DC0114962C91149721508F
:1003400014962C9309C0E0E0F0E006C025853685C0
:1003500021153105E1F6D7CFCF01DF91CF91089577
:10036000CF93DF93FC018481811106C07183608388
:100370007383628381E012C0DB011E961C921E9281
:100380001D97A081B181EB01BC87AB871E967C9342
:100390006E931D977183608384818F5F8483DF9167
:1003A000CF910895CF93DF93FC018481811106C022
:1003B000718360837383628381E012C0DB011C96CA
:1003C0001C921E921B97A281B381EB01BE87AD8761
:1003D0001C967C936E931B977383628384818F5FDB
:1003E0008483DF91CF910895CF93DF93FC018481C3
:1003F000811106C0718360837383628381E02BC0A7
:10040000DB0115968C91853029F4CF01DF91CF91D6
:100410000C94D201A281B38109C015969C911597C5
:10042000891700F51D960D90BC91A02D1097A9F786
:1004300014C0EB019C878B871B96CD91DC911C9798
:100440007E876D871C967C936E931B97EB01BE870E
:10045000AD8784818F5F84830CC0CF01DF91CF9102
:100460000C94B0011B968D919C911C97009709F7F5
:10047000CCCFDF91CF910895AF92BF92DF92EF92F0
:10048000FF920F931F93CF93DF9300D01F92CDB7AE
:10049000DEB7D82EE92E8A01F090A00286E08F15F3
:1004A00008F46FC08FE090E02A833B8369830E9449
:1004B00047065C01DC011296FC9212978F2D8F5F2C
:1004C0008093A002EF2DF0E0EE0FFF1FEF55FD4FE0
:1004D000B182A08281E013968C93139717961C9299
:1004E0001E92169719961C921E9218971A961C9295
:1004F0001A971E961C921E921D971C961C921E9275
:100500001B97698115966C93E0919902F0919A027C
:10051000AF01401B510B50939A0240939902D08235
:10052000DF011197EC92DF0112971C92DF01139704
:1005300080E88C93DF0114971C92AD01CF014A979C
:100540003B812A81DA011E92AD01A817B907D1F7C4
:10055000DF015B972C93DF015C973C93CF0182977F
:100560001E92A817B907E1F7B397D501ED93FC9355
:10057000B5018BE992E00E94F401F501228130E09F
:1005800002C02FEF3FEFC9010F900F900F90DF9146
:10059000CF911F910F91FF90EF90DF90BF90AF90A0
:1005A0000895CF93DF9380919F02882321F1C0911A
:1005B0009702D0919802E0919B02F0919C029D815C
:1005C00085819817C0F081E08B838BE992E00E94CF
:1005D0003D019093980280939702FC011382BE0123
:1005E0008BE992E00E94F401609197027091980269
:1005F000CE010E948400DF91CF9108952FEF84E314
:100600009CE0215080409040E1F700C000000E9433
:10061000D102F4CFE0919702F0919802828190E0AC
:100620000895CF92DF92EF92FF920F931F93CF9393
:10063000DF936C017B01EC01CC0FDD1FCF55DD4F4B
:10064000E881F9813097A1F18381833011F18091A4
:100650009F028823F1F0009197021091980282E0A6
:10066000F80183838BE992E00E943D019093980208
:1006700080939702FC01138288819981B8010696C4
:100680000E94D2016091970270919802C8010E9465
:100690008400F601EE0FFF1FEF55FD4F0190F08132
:1006A000E02D8481F7018083118220E030E002C0D8
:1006B0002FEF3FEFC901DF91CF911F910F91FF9075
:1006C000EF90DF90CF900895FF920F931F93CF93F9
:1006D000DF93C0919702D09198028C8383E08B8343
:1006E0008E010A5F1F4FFF24F3940AC0C8010E94C5
:1006F0003D01BC01FC01F3828BE992E00E94F40110
:100700008A858111F3CF80919F02882371F08BE954
:1007100092E00E943D019093980280939702FC0121
:100720001382BC01CE010E948400DF91CF911F9102
:100730000F91FF9008958430910540F4FC01EE0F75
:10074000FF1FE85FFE4F2081318102C025E431E0C8
:10075000C90108958630910540F4FC01EE0FFF1F9A
:10076000E05FFE4F2081318102C025E431E0C90104
:1007700008950F931F93CF93DF93FC01C081D18124
:100780000BE411E032C0EB81F0E0E430F10538F425
:10079000EE0FFF1FE85FFE4F2081318102C025E48C
:1007A00031E0ED81F0E0E630F10538F4EE0FFF1FA7
:1007B000E05FFE4F8081918102C085E491E03F932C
:1007C0002F939F938F938A811F928F931F930F93E1
:1007D0000E947E070B84DC85C02D8DB79EB70896DE
:1007E0000FB6F8949EBF0FBE8DBF209761F6DF91C4
:1007F000CF911F910F910895CF93DF9380919F0226
:10080000882321F1C0919702D0919802E0919B0238
:10081000F0919C029D8185819817C0F081E08B83C7
:100820008BE992E00E943D01909398028093970299
:10083000FC011382BE018BE992E00E94F4016091F9
:10084000970270919802CE010E948400DF91CF91AF
:100850000895E0919B02F0919C0285811F928F93F5
:1008600081E791E09F938F930E947E070F900F90F6
:100870000F900F900895CF92DF92FF920F931F93E6
:10088000CF93DF9300D01F92CDB7DEB7F82E092F9C
:100890001091A002173008F05FC08FE090E02A832B
:1008A0003B8369830E9447066C01DC0112961C930E
:1008B0001297812F8F5F8093A002E12FF0E0EE0F5F
:1008C000FF1FEF55FD4FD182C08281E013968C93BC
:1008D000139717961C921E92169719961C921E92A9
:1008E00018971A961C921A971E961C921E921D9784
:1008F0001C961C921E921B97698115966C93F09220
:1009000000000093FFFF1092FEFF80E88093FDFF40
:100910001092FCFFECEFFFEF3B812A811292E63E42
:10092000BFEFFB07D9F72093E5FF3093E4FFE4EE38
:10093000FFEF1292EE3D8FEFF807D9F78DED9FEFA5
:10094000D6018D939C93B6018BE992E00E94F4014D
:10095000F601228130E002C02FEF3FEFC9010F9076
:100960000F900F90DF91CF911F910F91FF90DF902B
:10097000CF900895CF93DF9300D0CDB7DEB78091AD
:10098000A0028730D8F510929C0210929B02109220
:100990009E0210929D0210929F028FE090E00E94B2
:1009A0004706FC019093980280939702128281E09F
:1009B0008093A002F093A202E093A1021782168214
:1009C0001186108612861382168615861486138663
:1009D0008FE798E090939A02809399021A82198285
:1009E0009E012F5F3F4F40E850E065E070E08EEFE2
:1009F00092E00E943B0420E030E002C02FEF3FEF86
:100A0000C9010F900F90DF91CF9108951F920F921F
:100A10000FB60F9211242F938F939F93EF93FF9311
:100A20008091C0009091C6001092AD02913619F4E9
:100A300021E02093AD028871E0915402EF5FEF71E5
:100A400020915302E21739F0E0935402F0E0E95AA2
:100A5000FD4F908301C082E080935202FF91EF919D
:100A60009F918F912F910F900FBE0F901F9018950F
:100A70001F920F920FB60F9211248F939F93EF93B3
:100A8000FF939091560280915502981769F0E0917A
:100A90005502EF5FEF71E0935502F0E0E958FD4F2A
:100AA00080818093C60005C08091C1008F7D8093B6
:100AB000C100FF91EF919F918F910F900FBE0F900A
:100AC0001F901895109256021092550210925402DF
:100AD0001092530297FF04C022E02093C0009F773A
:100AE0009093C5008093C40088E98093C10086E09C
:100AF0008093C200089590915402809153029817F8
:100B000089F0E0915302EF5FEF71E0935302F0E060
:100B1000E95AFD4F808190915202392F20E0280F31
:100B2000311D02C020E031E0C901089590915602C4
:100B30009F5F9F71209155029217E1F3E92FF0E03A
:100B4000E958FD4F8083909356028091C1008062E6
:100B50008093C1000895CF93DF93EC0102C00E94FF
:100B6000960589918111FBCFDF91CF910895CF93A5
:100B7000DF93EC0102C00E949605FE01219684914C
:100B80008111F9CFDF91CF910895CF93C82F8A308B
:100B900019F48DE00E9496058C2F0E94960580E046
:100BA00090E0CF910895809154022091530290E0FB
:100BB0004F96821B91096FE170E00E941F06089515
:100BC00080915302809354020895CF93DF93CDB761
:100BD000DEB728970FB6F894DEBF0FBECDBF15B8AD
:100BE0000E94BA0487E090E09C838B839A83898378
:100BF0009E012D5F3F4F40E850E063E070E083E5E9
:100C000090E00E943C028C019E012F5F3F4F40E824
:100C100050E063E070E083E590E00E943C027C01DC
:100C2000BE01695F7F4FC8010E941103BE016B5F67
:100C30007F4FC7010E94110381E185B9FECF97FB69
:100C4000072E16F4009407D077FD09D00E943306D2
:100C500007FC05D03EF4909581959F4F08957095BF
:100C600061957F4F0895AA1BBB1B51E107C0AA1FC6
:100C7000BB1FA617B70710F0A61BB70B881F991F3D
:100C80005A95A9F780959095BC01CD0108950F93D1
:100C90001F93CF93DF938230910510F482E090E0B0
:100CA000E091B002F091B10220E030E0C0E0D0E08D
:100CB00023C04081518148175907A8F048175907A8
:100CC00061F482819381209719F09B838A832EC0DF
:100CD0009093B1028093B00229C02115310529F00B
:100CE0004217530710F0A90102C0BE01DF010281C3
:100CF0001381EF019A01F8013097D9F621153105DA
:100D000009F1281B390B2430310590F412968D918E
:100D10009C9113976115710521F0FB0193838283E8
:100D200004C09093B1028093B002FD01329644C09A
:100D3000FD01E20FF31F81939193225031092D930E
:100D40003C933AC02091AE023091AF02232B41F484
:100D500020910401309105013093AF022093AE023F
:100D600020910201309103012115310541F42DB785
:100D70003EB74091060150910701241B350BE091CD
:100D8000AE02F091AF02E217F307A0F42E1B3F0B67
:100D90002817390778F0AC014E5F5F4F24173507ED
:100DA00048F04E0F5F1F5093AF024093AE02819305
:100DB000919302C0E0E0F0E0CF01DF91CF911F916D
:100DC0000F910895EF92FF920F931F93CF93DF93AC
:100DD000009709F48EC0DC01129713961C921E92A4
:100DE0001297E090B002F090B102E114F10489F49E
:100DF0002D913C911197280F391F8091AE0290914F
:100E0000AF028217930789F5B093AF02A093AE02A9
:100E100070C0E70120E030E001C0EA01CA17DB073B
:100E200038F44A815B819E0141155105B1F722C01A
:100E3000AC0142505109FA01D383C2830081118170
:100E4000BC01600F711F6C177D0761F468817981A7
:100E5000600F711F6E5F7F4F718360836A817B813A
:100E6000738362832115310529F4B093B102A093F5
:100E7000B0023FC0F901B383A283E90149915991BE
:100E8000C40FD51FAC17BD0771F4DC019E918E9184
:100E9000840F951F02969183808312968D919C9169
:100EA000139793838283A0E0B0E002C0D7017C0156
:100EB000F701828193810097C9F7C70102962081CB
:100EC0003181820F931F2091AE023091AF0228171B
:100ED000390779F4109729F41092B1021092B002F8
:100EE00004C013961C921E921297F092AF02E092E9
:100EF000AE02CDB7DEB7E6E00C94690AA2E0B0E03E
:100F0000E4E8F7E00C94510AFE0137966191719183
:100F1000FA83E983AF018091B4029091B5020E94F7
:100F2000C4072296E2E00C946D0A0F931F93CF93AF
:100F3000DF938C01E091B402F091B502838181FFCF
:100F40001BC0C0E0D0E005C00995892B11F0CFEFA0
:100F5000DFEFF80181918F016091B4027091B502C9
:100F6000DB011896ED91FC9119978111EDCF8AE084
:100F70000995892B09F402C0CFEFDFEFCE01DF9195
:100F8000CF911F910F910895ACE0B0E0EAECF7E04B
:100F90000C94410A7C016B018A01FC0117821682C4
:100FA000838181FFC7C188248394912C8C0E9D1E60
:100FB000F7019381F60193FD859193FF81916F0174
:100FC000882309F4B3C1853239F493FD859193FFE9
:100FD00081916F01853229F4B70190E00E94B70931
:100FE000E7CF712C312C20E02032A8F48B3261F055
:100FF00028F4803251F0833271F40BC08D3239F015
:10100000803349F4216028C02260246025C0286014
:1010100023C0206121C027FD27C0382F30533A302C
:1010200078F426FF06C0FAE07F9E300D1124732E5F
:1010300013C08AE0389E300D1124332E20620CC07C
:101040008E3221F426FD72C1206406C08C3611F464
:10105000206802C0883641F4F60193FD859193FF24
:1010600081916F018111C0CF982F9554933018F062
:101070009052933028F40C5F1F4FFFE3F9830DC0AB
:10108000833631F0833771F0833509F05EC023C0B9
:10109000F801808189830E5F1F4F66246394712C51
:1010A000540115C02801F2E04F0E511CF801A08038
:1010B000B18026FF03C0672D70E002C06FEF7FEFA5
:1010C000C5012C870E94AC093C0182012C856FE789
:1010D000262E222218C02801F2E04F0E511CF801E2
:1010E000A080B18026FF03C0672D70E002C06FEFC3
:1010F0007FEFC5012C870E94A1093C012C8550E897
:10110000252E222A820123FC1CC006C0B70180E2E2
:1011100090E00E94B7093A94832D90E06816790612
:10112000A8F30FC0F50127FC859127FE81915F018F
:10113000B70190E00E94B70931103A94F1E06F1ABC
:1011400071086114710471F7EEC0843611F08936AC
:1011500041F5F80127FF07C0608171818281938189
:101160000C5F1F4F08C060817181882777FD8095D3
:10117000982F0E5F1F4F4FE6642E622297FF09C023
:1011800090958095709561957F4F8F4F9F4FF0E8B8
:101190006F2A2AE030E0A4010E94E309A82EA818D3
:1011A00044C0853731F43FEEB32EB2222AE030E05E
:1011B00024C099EFB92EB2228F36B9F020F48835C9
:1011C00009F0B4C00DC0803721F0883709F0AEC0F7
:1011D00002C020E1B22AB4FE0BC084E0B82A08C0E5
:1011E00024FF09C0E6E0BE2A06C028E030E005C0C2
:1011F00020E130E002C020E132E0F801B7FE07C094
:1012000060817181828193810C5F1F4F06C0608174
:10121000718180E090E00E5F1F4FA4010E94E309FE
:10122000A82EA8188FE7682E6B2066FE0BC0362DFF
:101230003E7FA71450F464FE0AC062FC08C0362D3D
:101240003E7E05C0BA2C362D03C0BA2C01C0B72C87
:1012500034FF0DC0FE01EA0DF11D8081803311F4D1
:10126000397E09C032FF06C0B394B39404C0832F03
:10127000867809F0B39433FD14C030FF0FC07A2C88
:10128000B31460F4730C7B18B32C08C0B70180E270
:1012900090E03C870E94B709B3943C85B314B0F347
:1012A00004C0B31410F43B1801C0312C34FF12C039
:1012B000B70180E390E03C870E94B7093C8532FF8C
:1012C0001EC031FF03C088E590E002C088E790E0CF
:1012D000B7010CC0832F867891F031FD02C080E207
:1012E00001C08BE237FD8DE2B70190E00E94B709A3
:1012F00006C0B70180E390E00E94B7097A94A71472
:10130000C0F3AA94F401EA0DF11DB701808190E0C9
:101310000E94B709A110F5CF06C0B70180E290E0A6
:101320000E94B7093A943110F8CF42CEF7012681D6
:10133000378102C02FEF3FEFC9012C96E2E10C94F8
:101340005D0AFC010590615070400110D8F780954E
:1013500090958E0F9F1F0895FC0161507040019081
:101360000110D8F7809590958E0F9F1F08950F93C9
:101370001F93CF93DF938C01EB018B8181FD03C021
:101380000FEF1FEF1AC082FF0DC02E813F818C81AD
:101390009D812817390764F4E881F9810193F98365
:1013A000E88306C0E885F985802F0995892B41F7E8
:1013B0008E819F8101969F838E83C801DF91CF919B
:1013C0001F910F910895FA01AA27283051F1203179
:1013D00081F1E8946F936E7F6E5F7F4F8F4F9F4FC9
:1013E000AF4FB1E03ED0B4E03CD0670F781F891F0B
:1013F0009A1FA11D680F791F8A1F911DA11D6A0FD9
:10140000711D811D911DA11D20D009F468943F918B
:101410002AE0269F11243019305D3193DEF6CF018A
:101420000895462F4770405D4193B3E00FD0C9F750
:10143000F6CF462F4F70405D4A3318F0495D31FDBD
:101440004052419302D0A9F7EACFB4E0A695979510
:10145000879577956795BA95C9F7009761057105E6
:1014600008959B01AC010A2E069457954795379530
:101470002795BA95C9F7620F731F841F951FA01D8A
:1014800008952F923F924F925F926F927F928F9228
:101490009F92AF92BF92CF92DF92EF92FF920F9303
:1014A0001F93CF93DF93CDB7DEB7CA1BDB0B0FB60D
:1014B000F894DEBF0FBECDBF09942A8839884888CA
:1014C0005F846E847D848C849B84AA84B984C88460
:1014D000DF80EE80FD800C811B81AA81B981CE0F57
:1014E000D11D0FB6F894DEBF0FBECDBFED0108953C
:0414F000F894FFCF9E
:1014F4000F000000B802200092019A01A001A80187
:10150400B201D001E80105021C0239025472796962
:101514006E6720746F206C6F61642061206E6F6E43
:10152400206578697374696E6720636F6E7465787B
:1015340074203F20004552524F5200746872656116
:10154400642049443A202564097072696F72697491
:10155400793A2025730973746174653A2025730AF6
:10156400007072696F72696461646520646F2068D9
:10157400656164206461206C697374613A20256438
:101584000A0052554E4E494E4700524541445900B7
:1015940057414954494E470046494E495348494EDC
:1015A40047005448524541445F5052494F524954B0
:1015B400595F54494D455F435249544943414C0096
:1015C4005448524541445F5052494F524954595F1F
:1015D40048494748455354005448524541445F5094
:1015E40052494F524954595F41424F56455F4E4FFD
:1015F400524D414C005448524541445F5052494F6A
:10160400524954595F4E4F524D414C005448524533
:1016140041445F5052494F524954595F42454C4FDF
:10162400575F4E4F524D414C005448524541445F20
:101634005052494F524954595F4C4F5745535400E7
:00000001FF
