:1000000065C000008BC0000089C000000C94BB08D4
:100010000C94DE080C94010981C000007FC0000030
:100020007DC000007BC0000079C0000077C00000E8
:1000300075C0000073C0000071C000006FC00000F8
:100040000C94C00B6BC000000C94E7090C94210ABF
:1000500065C0000063C0000061C000005FC0000018
:100060005DC000005BC0000000000007000201004E
:100070000003040600000000000000000102040864
:100080001020408001020408102001020408102002
:10009000040404040404040402020202020203032E
:1000A0000303030300000000250028002B000000CC
:1000B0000000240027002A008F009A00A500B3004A
:1000C000BE00C900D40042095C0A000B11241FBE07
:1000D000CFEFD8E0DEBFCDBF11E0A0E0B1E0EEECA5
:1000E000FAE102C005900D92A432B107D9F714E0ED
:1000F000A4E2B1E001C01D92A53AB107E1F710E01A
:10010000CCECD0E004C02297FE010E94610DC83BF8
:10011000D107C9F70E943E090C94650D71CF0F936A
:1001200000E020E040E060E084E291E00E94F40A18
:100130000F9108950F9300E020E040E060E08AE234
:1001400091E00E94F40A0F9108950F9300E020E0DF
:1001500040E060E088E391E00E94F40A80E391E0EF
:100160000F910C94EA0A0F9300E020E040E060E079
:100170008EE391E00E94F40A0F9108950F9300E03E
:1001800020E040E060E084E491E00E94F40A0F91F6
:1001900008950F9300E020E040E060E08AE491E001
:1001A0000E94F40A0F910895109255011092560181
:1001B0001092590110925B0182E090E0A0E0B0E063
:1001C00080935C0190935D01A0935E01B0935F0109
:1001D0001092730110927D0110927C018AE091E0EF
:1001E00090937B0180937A0110927F0108958EBDD8
:1001F0000DB407FEFDCF08958FEFF9DF8EB508959A
:1002000061E0FC0184810C94070D60E0FC018481B5
:100210000C94070DCF93DF93EC018E818823C1F0FE
:100220008FEF8EBD4FEF04C00DB407FEFDCF4EBD66
:100230008F8198859C012F5F3F4F38872F838130B6
:10024000924090F30DB407FEFDCFCE01D9DF1E82A0
:10025000DF91CF9108950F931F93CF93DF93EB011D
:100260000E940A0C8B01C8DF8F3F49F00E940A0CE4
:10027000601B710B6C177D07B0F380E001C081E05B
:10028000DF91CF911F910F910895CF92DF92FF924E
:100290000F931F93CF93DF9300D000D0CDB7DEB77D
:1002A0006C01F62E29833A834B835C83B3DFC6014E
:1002B000ACDF6CE271E0C601CEDF8F2D806497DF8A
:1002C00008E110E05C814B813A812981DA01C901A2
:1002D000002E04C0B695A795979587950A94D2F7F6
:1002E00029833A834B835C8382DF0850110929817B
:1002F0003A814B815C81083F8FEF180739F7FF2067
:1003000029F0E8E0FE1621F08FEF03C085E901C077
:1003100087E86DDF10E070DFF601828787FF04C099
:100320001F3F11F01F5FF7CF0F900F900F900F90AE
:10033000DF91CF911F910F91FF90DF90CF900895A3
:100340000F931F93CF93DF93EC010E940A0C8B0154
:1003500009C00E940A0C601B710B6D32714010F0D5
:100360008FE007C049DF8A878F3F99F38E3F31F0D6
:100370008DE08D83CE0144DF80E001C081E0DF911C
:10038000CF911F910F910895CF92DF92EF92FF923C
:100390000F931F93CF93DF93EC01690101151105B2
:1003A00009F472C0C801820F931F8130924008F097
:1003B0006DC08E81882371F088819981AA81BB816B
:1003C000481759076A077B0729F48F819885C81653
:1003D000D90608F5488359836A837B838B858330EC
:1003E00039F0B9E0440F551F661F771FBA95D1F752
:1003F0009A01AB0161E1CE0148DF882319F083E067
:100400008D8344C0CE019CDF882309F43FC0188649
:100410001F8281E08E838FEF8EBD2FEF09C00DB458
:1004200007FEFDCF2EBD8F819885019698878F831B
:100430008F8198858C159D0590F3C8010197F70170
:100440004FEF06C00DB407FEFDCF2EB521934EBD74
:100450009F012E193F0928173907A0F30DB407FE95
:10046000FDCF2EB5F701E80FF91F20838F81988506
:10047000800F911F98878F832985222319F081157A
:10048000924010F0CE01C6DE81E003C0CE01B8DE9E
:1004900080E0DF91CF911F910F91FF90EF90DF905F
:1004A000CF900895EF92FF920F931F93790100E090
:1004B00012E020E030E068DF1F910F91FF90EF9095
:1004C0000895CF93DF93EC016EBD20E030E00DB4D2
:1004D00007FEFDCFFA01E20FF31F80818EBD0DB440
:1004E00007FEFDCF81818EBD2E5F3F4F211582E03B
:1004F000380769F70DB407FEFDCF8FEF78DE8FEF79
:1005000076DE7ADE8A878F71853031F081E18D83E6
:10051000CE0176DE80E001C081E0DF91CF910895C9
:100520000F931F93CF93DF93EC0189014115510580
:100530006105710511F482E132C08B85833039F099
:1005400089E0440F551F661F771F8A95D1F79A01DE
:10055000AB0168E1CE0199DE882311F084E01FC071
:10056000A8016EEFCE01ADDF8823A1F068E572E04F
:10057000CE0171DE811102C085E111C020E030E0C2
:10058000A9016DE0CE0181DE811108C035DE811147
:1005900005C007C0CE0134DE80E006C084E18D8353
:1005A000F9CFCE012DDE81E0DF91CF911F910F9128
:1005B0000895CF93DF93EC019C012A5F3F4F41E008
:1005C00050E060E070E08B8D9C8D59D48823A1F0C1
:1005D0004F89588D698D7A8D452B462B472B71F4A9
:1005E0004E815F81688579854F8B588F698F7A8FAF
:1005F0008C8180688C8302C080E001C081E0DF9143
:10060000CF910895CF93DF93EC01462F6E857F85C0
:1006100088899989D7D2882341F02A8980E2289F46
:10062000900111242E553E4F02C020E030E0C90158
:10063000DF91CF9108958F929F92AF92BF92CF9208
:10064000DF92EF92FF920F931F93CF93DF93EC0112
:100650004A015B012D81222309F474C08B899C8996
:10066000AD89BE8984179507A607B70708F46AC045
:100670006BC081149104A104B10449F41E821F824D
:10068000188619861A861B861C861D8659C04A85BF
:100690005B856C857D85EB8DFC8D258530E0275F46
:1006A0003F4FDB01CA010197A109B109022E04C025
:1006B000B695A795979587950A94D2F7CC24CA94B6
:1006C000DC2C7601C80CD91CEA1CFB1C04C0F69477
:1006D000E794D794C7942A95D2F7C816D906EA06A4
:1006E000FB0620F0452B462B472B49F48F89988D2C
:1006F000A98DBA8D8E839F83A887B98715C0C81A24
:10070000D90AEA0AFB0A10C04E815F8168857985A3
:1007100098018B8D9C8D8FD291E0C91AD108E10888
:10072000F108811104C00EC08E010A5F1F4FC11471
:10073000D104E104F10441F78A869B86AC86BD862C
:1007400081E006C080E004C0223009F092CFF4CFEF
:10075000DF91CF911F910F91FF90EF90DF90CF909D
:10076000BF90AF909F908F9008950F931F93CF935A
:10077000DF93EC018D818823B9F18C8187FF2FC035
:1007800061E0CE013FDF8C01009771F18D818230F5
:1007900048F44B895C896D897E89F801448F558FB7
:1007A000668F778F4F89588D698D7A8DF801538FB9
:1007B000428F758B648BE0919901F0919A0130978B
:1007C00059F0B8016A5E7F4FC80148960995F80153
:1007D000808D918D938B828B8C818F778C83DF9131
:1007E000CF911F910F91B5C180E0DF91CF911F9103
:1007F0000F9108952F923F924F925F926F927F9246
:100800008F929F92AF92BF92CF92DF92EF92FF9220
:100810000F931F93CF93DF9300D000D01F92CDB7DB
:10082000DEB78C01962E872E6A01DC0115968C911D
:10083000813009F058C1F801848181FF54C15DC144
:10084000D80153964D915D916D917C9156971A9672
:100850008D919D910D90BC91A02D84179507A607B1
:10086000B70721F45601E92CF82C06C1C801E3DED4
:10087000882309F438C1F6CFF801838D948DDC010B
:100880001496BC91B150B301A201A9E07695679589
:1008900057954795AA95D1F7B423BD83B301A2011B
:1008A0005170662777273A01B1113FC041155105B4
:1008B000E1F54681578160857185411551056105D6
:1008C000710549F48789908DA18DB28D0097A1059E
:1008D000B10531F520C09E012F5F3F4FACD1811192
:1008E00001C008C189819A81AB81BC81F801238D47
:1008F000348DF9012789203129F448EF5FEF60E05A
:1009000070E004C048EF5FEF6FEF7FE0841795075A
:10091000A607B70728F0C8014CDE811106C0E3C066
:10092000F80186839783A087B18780E092E08619DB
:10093000970945018A159B0508F44C01D8015B967F
:10094000ED91FC915C9716962D903D904D905C90AA
:100950001997B2E02B1A310841085108058404C0E8
:10096000220C331C441C551C0A94D2F786859785AB
:10097000A089B189280E391E4A1E5B1EED812E0EFC
:10098000311C411C511C8114F2E09F0631F580910D
:10099000000190910101A0910201B0910301821523
:1009A0009305A405B50559F48FEF9FEFDC01809303
:1009B000000190930101A0930201B09303019701FC
:1009C000B201A1018091A0019091A101A9DD88232C
:1009D00009F489C09EEFF91A40C06114710421F531
:1009E000D8011A964D915D916D917C911D9753960A
:1009F0008D919D910D90BC91A02D481759076A07C4
:100A00007B0790F0A6D0882309F46DC020920001E6
:100A100030920101409202015092030180919F01A6
:100A2000816080939F0107C041E0C201B101CAD03B
:100A3000882309F458C0C3018E559E4F9C01280D90
:100A4000391DD701FC0102C04D914193E217F30714
:100A5000D9F7E81BF90BEE0EFF1EA818B908F8012C
:100A600082859385A485B585880D991DA11DB11D2D
:100A700082879387A487B587D8011A964D905D9099
:100A80006D907C901D97A114B10409F0F5CE53969A
:100A90008D919D910D90BC91A02D84159505A60575
:100AA000B70548F4F801438A548A658A768A8481B6
:100AB0008068848310C08091990190919A01892B5C
:100AC00051F0C114D10439F0D80114968C911497C7
:100AD000806814968C93F801848183FF11C0C8014B
:100AE00044DE81110DC081E090E0D80113969C9303
:100AF0008E931297C12CD12C03C082FDA1CEB2CE11
:100B0000C6010F900F900F900F900F90DF91CF9133
:100B10001F910F91FF90EF90DF90CF90BF90AF901B
:100B20009F908F907F906F905F904F903F902F900D
:100B30000895CF93DF931F92CDB7DEB7698341E06D
:100B400050E0BE016F5F7F4F55DE0F90DF91CF9178
:100B5000089580919F01882389F14091000150916F
:100B60000101609102017091030122EA31E080915C
:100B7000A0019091A101D4DC882311F140919B0147
:100B800050919C0160919D0170919E01411551050C
:100B90006105710589F022EA31E08091A001909110
:100BA000A101BEDC882361F010929B0110929C0190
:100BB00010929D0110929E0110929F0181E0089574
:100BC00080E00895CF92DF92EF92FF92CF936B0176
:100BD0007C01C42F8091000190910101A09102013C
:100BE000B09103018C159D05AE05BF05C1F0B1DFC5
:100BF000811102C080E019C022EA31E0B701A601EC
:100C00008091A0019091A1014DDC882399F3C092BD
:100C10000001D0920101E0920201F0920301809163
:100C20009F018C2B80939F0181E0CF91FF90EF90EB
:100C3000DF90CF9008958F929F92AF92BF92CF9204
:100C4000DF92EF92FF920F931F93CF93DF938C016C
:100C50006A017B01E901FC0181859285A385B48548
:100C60000196A11DB11D84179507A607B70710F4BB
:100C700080E058C0F801438954896589768987895D
:100C8000803129F4BB27AF2D9E2D8D2D09C0D701B2
:100C9000C60127E0B695A795979587952A95D1F730
:100CA0004C015D01840E951EA61EB71EC501B40140
:100CB0008090000190900101A0900201B09003018A
:100CC000681579058A059B0529F4F8018789803123
:100CD00099F405C040E076DF8111F7CFC9CFDD245C
:100CE000EE24FF24F601EE0FFF1FEE55FE4F80812C
:100CF0009181A0E0B0E011C0E894C7F8DD24EE24B3
:100D0000FF24F601EE0FFF1FEE0FFF1FEE55FE4F03
:100D100080819181A281B381BF7088839983AA83E6
:100D2000BB8381E0DF91CF911F910F91FF90EF90F6
:100D3000DF90CF90BF90AF909F908F9008954F928B
:100D40005F926F927F928F929F92AF92BF92CF925B
:100D5000DF92EF92FF920F931F93CF93DF93EC01FB
:100D60006A017B0128013901423051056105710595
:100D700008F473C089859A85AB85BC850196A11D51
:100D8000B11D84179507A607B70708F466C08B88BE
:100D90009C88AD88BE888F89803129F4BB27A72F16
:100DA000962F852F09C0DB01CA0177E0B695A7957C
:100DB000979587957A95D1F7880E991EAA1EBB1E26
:100DC0008091000190910101A0910201B091030175
:100DD00088169906AA06BB0621F48F89803199F4FA
:100DE00007C040E0C501B401EDDE8111F6CF35C08A
:100DF000DD24EE24FF24F601EE0FFF1FEE55FE4F1B
:100E00005182408210C0E894C7F8DD24EE24FF240C
:100E1000F601EE0FFF1FEE0FFF1FEE55FE4F408253
:100E200051826282738280919F01816080939F01D1
:100E30008A89823080F08D819E81AF81B885880D4E
:100E4000991DAA1DBB1D80939B0190939C01A093AB
:100E50009D01B0939E0181E001C080E0DF91CF91C0
:100E60001F910F91FF90EF90DF90CF90BF90AF90C8
:100E70009F908F907F906F905F904F9008952F92EA
:100E80003F924F925F926F927F929F92AF92BF92EA
:100E9000CF92DF92EF92FF920F931F93CF93DF9346
:100EA000CDB7DEB760970FB6F894DEBF0FBECDBFEB
:100EB0005C014D875E876F87788B1901D9014D9052
:100EC0005D906D907C90411451046104710431F087
:100ED000BFEF4B1A5B0A6B0A7B0A10C0FC01408013
:100EE000518062807380992493942D853E854F852F
:100EF0005889213031054105510509F0912CD50162
:100F000019968D919D910D90BC91A02D0196A11DDA
:100F1000B11D89879A87AB87BC87730162011D82E7
:100F20001E821F821886F50181859285A385B4856E
:100F30002D813E814F815885281739074A075B0765
:100F400008F054C089859A85AB85BC858C159D05B4
:100F5000AE05BF0550F4F2E0CF2ED12CE12CF12CE0
:100F6000A2E04A2E512C612C712C9E012F5F3F4F25
:100F7000B701A601C5015FDE8823C1F149815A810D
:100F80006B817C81D701C6010196A11DB11D452B46
:100F9000462B472B19F02C013D010DC084199509F2
:100FA000A609B7092D853E854F8558898217930775
:100FB000A407B50789F08D819E81AF81B885019620
:100FC000A11DB11D8D839E83AF83B8879FEFC91A82
:100FD000D90AE90AF90AA7CF0FEF1FEF2FEF3FE079
:100FE000A601B701C501ABDE81111AC080E042C085
:100FF000A701960121503109410951092D833E83F2
:101000004F835887970186014D815E816F81788576
:10101000C50195DE882351F3CD80DE80EF80F88412
:101020004C145D046E047F0418F3D1014D915D9161
:101030006D917C91411551056105710541F4F101F6
:101040004082518262827382911008C012C0930163
:101050008201C50174DE8111F2CFC8CFFFEF4F1AB4
:101060005F0A6F0A7F0AD5014D925D926D927C9264
:10107000139781E060960FB6F894DEBF0FBECDBF28
:10108000DF91CF911F910F91FF90EF90DF90CF9064
:10109000BF90AF909F907F906F905F904F903F90E8
:1010A0002F90089520E001972FEF8F3F9207D9F7F7
:1010B0000895EF92FF920F931F93CF93DF93EC016C
:1010C0008B8DEE85FF859D8581FF04C080818923FE
:1010D00029F442C08081892309F03EC08B899C8914
:1010E000E1DF08E010E0EE24E394F12C8D899E8985
:1010F000D9DFEE85FF8580819D85892311F0FE284B
:1011000003C08E2D8095F822EE0C0150110971F765
:101110008F89988DC7DF8B8D81FDF0948091A3031B
:101120002091A20390E001968F73992730E08217F7
:10113000930779F0E091A303F0E0EC55FC4FF082C7
:101140008091A30390E001968F7399278093A30366
:1011500003C08B8D81608B8FDF91CF911F910F9199
:10116000FF90EF9008958091E4039091E50300973C
:1011700009F09FCF08951F920F920FB60F9211247E
:101180002F933F934F935F936F937F938F939F938F
:10119000AF93BF93EF93FF93E6DFFF91EF91BF9182
:1011A000AF919F918F917F916F915F914F913F91FF
:1011B0002F910F900FBE0F901F9018951F920F92B6
:1011C0000FB60F9211242F933F934F935F936F931A
:1011D0007F938F939F93AF93BF93EF93FF93C3DF5F
:1011E000FF91EF91BF91AF919F918F917F916F91FF
:1011F0005F914F913F912F910F900FBE0F901F90D5
:1012000018951F920F920FB60F9211242F933F93B0
:101210004F935F936F937F938F939F93AF93BF93FE
:10122000EF93FF93A0DFFF91EF91BF91AF919F915B
:101230008F917F916F915F914F913F912F910F907F
:101240000FBE0F901F90189561E080910401A7C315
:10125000CF93DF93C4E0D1E061E08881D8D364E626
:1012600070E080E090E012D360E08881D0D364E643
:1012700070E080E090E0DF91CF9108C32BD3E4DFF2
:10128000E7DFFECF0F9300E020E040E060E086EE75
:1012900093E0AAD10F910895FC0184859585FC0106
:1012A000E05CFF4F20813181FC01EE5BFF4F8081CC
:1012B0009181281B390B2F733327C9010895FC0135
:1012C00084859585FC01E05CFF4F40815181FC01E4
:1012D000EE5BFF4F208131814217530741F00190AF
:1012E000F081E02DE80FF91F208130E002C02FEFE0
:1012F0003FEFC9010895FC0184859585FC01E05C00
:10130000FF4F40815181FC01EE5BFF4F2081318115
:101310004217530781F0A081B181A80FB91F8C91AA
:10132000208131812F5F3F4F2F73332731832083FB
:10133000282F30E002C02FEF3FEFC9010895FC01D4
:1013400081A1882329F0A489B5898C9186FFFBCFE0
:1013500011A20895CF93DF93FC0126853785D9012B
:10136000A05CBF4F8D919C91119701968F73992727
:10137000E901CE5BDF4F4881598184179507D9F386
:101380000D90BC91A02DA20FB31F6C93A685B785BD
:10139000A05CBF4F11969C938E93A689B7892C9120
:1013A00081E090E0078C02C0880F991F0A94E2F751
:1013B000282B2C9381E081A30488F589E02D80817E
:1013C0008064808381E090E0DF91CF9108951F9247
:1013D0000F920FB60F9211242F933F934F938F9339
:1013E0009F93EF93FF938091C00082FD1CC04091BA
:1013F000C600809192049091930401968F7399276F
:1014000020919404309195048217930771F0E09134
:101410009204F0919304EE5AFB4F4083909393040F
:101420008093920402C08091C600FF91EF919F913A
:101430008F914F913F912F910F900FBE0F901F9062
:1014400018951F920F920FB60F9211242F933F936E
:101450008F939F93EF93FF9320914E0430914F040D
:1014600080915004909151042817390731F48091EC
:10147000C1008F7D8093C10014C0E0915004F091B1
:101480005104E25FFB4F2081809150049091510400
:1014900001968F7399279093510480935004209361
:1014A000C600FF91EF919F918F913F912F910F90E7
:1014B0000FBE0F901F9018951092EF031092EE033D
:1014C00088EE93E0A0E0B0E08093F0039093F10306
:1014D000A093F203B093F30382E191E09093ED03C4
:1014E0008093EC0382E594E09093F9038093F803F2
:1014F0008EE094E09093FB038093FA0385EC90E0F8
:101500009093FD038093FC0384EC90E09093FF03A1
:101510008093FE0380EC90E090930104809300049C
:1015200081EC90E0909303048093020482EC90E0BD
:10153000909305048093040486EC90E09093070454
:101540008093060484E08093080483E08093090478
:1015500087E080930A0485E080930B0481E0809308
:101560000C040895AF92BF92CF92DF92EF92FF9258
:101570000F931F93CF93DF936C017B01C0E0D0E00A
:1015800000E010E0F601EC0FFD1F4AE050E0628140
:10159000C701F0D05C016EE2C7017FD08A0D9B1DB0
:1015A000080F191F2196C330D10561F74AE050E0BA
:1015B000F6016581C701DED0080F191FC801DF9150
:1015C000CF911F910F91FF90EF90DF90CF90BF9040
:1015D000AF90089522E231E0FC0131832083128232
:1015E00013821482158208950F93FC0182E291E028
:1015F0009183808362834383248305830F910895BD
:1016000082E291E09093970480939604109298045C
:101610001092990410929A0410929B040895CF920C
:10162000DF92EF92FF920F931F93CF93DF936C01A2
:10163000EB017A01E60EF71E00E010E00BC06991A5
:10164000D601ED91FC910190F081E02DC601099544
:10165000080F191FCE15DF0591F7C801DF91CF9153
:101660001F910F91FF90EF90DF90CF90089561153B
:10167000710581F0DB010D900020E9F7AD014150CB
:101680005109461B570BDC01ED91FC910280F3815F
:10169000E02D099480E090E00895DC01ED91FC914B
:1016A0000190F081E02D09944F925F926F927F92AA
:1016B0009F92AF92BF92CF92DF92EF92FF920F93E1
:1016C0001F93CF93DF93CDB7DEB7A1970FB6F894F2
:1016D000DEBF0FBECDBF5C016A017B01922E19A255
:1016E00081E0821710F08AE0982E8E010F5D1F4F67
:1016F000492C512C612C712CC701B601A301920118
:10170000BCD18C2D929E80191124015011098A3070
:1017100010F4805D01C0895CF801808369017A0161
:10172000C114D104E104F10439F7B801C5019FDF08
:10173000A1960FB6F894DEBF0FBECDBFDF91CF915B
:101740001F910F91FF90EF90DF90CF90BF90AF90DF
:101750009F907F906F905F904F9008952115310575
:1017600041F4DC01ED91FC910190F081E02D642FBA
:1017700009949ACF9A01462F50E060E070E0EECFD6
:101780001F920F920FB60F9211242F933F938F93B6
:101790009F93AF93BF9380919C0490919D04A091DF
:1017A0009E04B0919F043091A404232F2D5F2D3708
:1017B00020F40196A11DB11D05C0232F2A570296C2
:1017C000A11DB11D2093A40480939C0490939D04BB
:1017D000A0939E04B0939F048091A0049091A104D3
:1017E000A091A204B091A3040196A11DB11D809304
:1017F000A0049093A104A093A204B093A304BF916A
:10180000AF919F918F913F912F910F900FBE0F90AD
:101810001F9018950F931F938FB7F89400919C0415
:1018200010919D0420919E0430919F048FBFB801B8
:10183000C9011F910F9108950F931F939FB7F894BB
:101840000091A0041091A1042091A2043091A3045E
:1018500086B5A89B06C08F3F21F00F5F1F4F2F4F0B
:101860003F4F9FBF322F212F102F0027080F111D30
:10187000211D311D42E0000F111F221F331F4A9509
:10188000D1F7B801C9011F910F910895CF92DF924E
:10189000EF92FF92CF93DF936B017C01CDDFEB01E1
:1018A0000DC0CADF6C1B7D0B683E734038F081E0D1
:1018B000C81AD108E108F108C851DC4FC114D1049D
:1018C000E104F10471F7DF91CF91FF90EF90DF9089
:1018D000CF900895789484B5826084BD84B581608A
:1018E00084BD85B5826085BD85B5816085BDEEE628
:1018F000F0E0808181608083E1E8F0E01082808107
:1019000082608083808181608083E0E8F0E0808174
:1019100081608083E1EBF0E0808184608083E0EB94
:10192000F0E0808181608083EAE7F0E0808184607C
:1019300080838081826080838081816080838081D8
:10194000806880831092C1000895833069F028F484
:101950008130A1F0823011F514C08630B1F08730AB
:10196000C1F08430D9F404C0809180008F7703C027
:10197000809180008F7D80938000089584B58F775B
:1019800002C084B58F7D84BD08958091B0008F77AB
:1019900003C08091B0008F7D8093B0000895CF93F5
:1019A000DF9390E0FC01E458FF4F4491FC01E057C5
:1019B000FF4F8491882341F190E0880F991FFC012B
:1019C000E255FF4F25913491D9018C559F4FFC0171
:1019D00085919491C82FD92F9FB7F8948C9161115C
:1019E00006C0409584238C938881842308C062308C
:1019F00041F4242F209582238C938881842B888323
:101A000002C0842B8C939FBFDF91CF9108950F93D9
:101A10001F93CF93DF931F92CDB7DEB7282F30E00F
:101A2000F901E859FF4F8491F901E458FF4F1491EF
:101A3000F901E057FF4F04910023C9F0882319F002
:101A4000698383DF6981E02FF0E0EE0FFF1FEC5523
:101A5000FF4F85919491DC019FB7F8948C916111AF
:101A600003C01095812301C0812B8C939FBF0F90E1
:101A7000DF91CF911F910F910895A1E21A2EAA1B19
:101A8000BB1BFD010DC0AA1FBB1FEE1FFF1FA2172E
:101A9000B307E407F50720F0A21BB30BE40BF50B2B
:101AA000661F771F881F991F1A9469F760957095B4
:101AB000809590959B01AC01BD01CF010895EE0F7B
:0E1AC000FF1F0590F491E02D0994F894FFCFDC
:101ACE00FFFFFFFF0D000000000099050F0B000047
:101ADE000000AA090F0B4C097B095F099F09000042
:041AEE000000B20A38
:00000001FF
